{
  "_format": "hh-sol-artifact-1",
  "contractName": "NFTMarket",
  "sourceName": "contracts/Market.sol",
  "abi": [
    {
      "inputs": [],
      "stateMutability": "nonpayable",
      "type": "constructor"
    },
    {
      "anonymous": false,
      "inputs": [
        {
          "indexed": true,
          "internalType": "uint256",
          "name": "itemId",
          "type": "uint256"
        },
        {
          "indexed": true,
          "internalType": "address",
          "name": "nftContract",
          "type": "address"
        },
        {
          "indexed": true,
          "internalType": "uint256",
          "name": "tokenId",
          "type": "uint256"
        },
        {
          "indexed": false,
          "internalType": "address",
          "name": "seller",
          "type": "address"
        },
        {
          "indexed": false,
          "internalType": "address",
          "name": "owner",
          "type": "address"
        },
        {
          "indexed": false,
          "internalType": "uint256",
          "name": "price",
          "type": "uint256"
        },
        {
          "indexed": false,
          "internalType": "bool",
          "name": "sold",
          "type": "bool"
        }
      ],
      "name": "MarketItemCreated",
      "type": "event"
    },
    {
      "anonymous": false,
      "inputs": [
        {
          "indexed": true,
          "internalType": "uint256",
          "name": "itemId",
          "type": "uint256"
        },
        {
          "indexed": true,
          "internalType": "address",
          "name": "nftContract",
          "type": "address"
        },
        {
          "indexed": true,
          "internalType": "uint256",
          "name": "tokenId",
          "type": "uint256"
        },
        {
          "indexed": false,
          "internalType": "address",
          "name": "seller",
          "type": "address"
        },
        {
          "indexed": false,
          "internalType": "address",
          "name": "buyer",
          "type": "address"
        },
        {
          "indexed": false,
          "internalType": "uint256",
          "name": "price",
          "type": "uint256"
        }
      ],
      "name": "MarketItemSold",
      "type": "event"
    },
    {
      "inputs": [],
      "name": "MDT1ContractAddress",
      "outputs": [
        {
          "internalType": "address",
          "name": "",
          "type": "address"
        }
      ],
      "stateMutability": "view",
      "type": "function"
    },
    {
      "inputs": [
        {
          "internalType": "address",
          "name": "nftContract",
          "type": "address"
        },
        {
          "internalType": "uint256",
          "name": "tokenId",
          "type": "uint256"
        },
        {
          "internalType": "uint256",
          "name": "price",
          "type": "uint256"
        }
      ],
      "name": "createMarketItem",
      "outputs": [],
      "stateMutability": "payable",
      "type": "function"
    },
    {
      "inputs": [
        {
          "internalType": "address",
          "name": "nftContract",
          "type": "address"
        },
        {
          "internalType": "uint256",
          "name": "itemId",
          "type": "uint256"
        }
      ],
      "name": "createMarketSale",
      "outputs": [],
      "stateMutability": "payable",
      "type": "function"
    },
    {
      "inputs": [
        {
          "internalType": "address",
          "name": "nftContract",
          "type": "address"
        },
        {
          "internalType": "uint256",
          "name": "itemId",
          "type": "uint256"
        },
        {
          "internalType": "uint256",
          "name": "value",
          "type": "uint256"
        }
      ],
      "name": "createMarketSaleWithCustomTokenAndSafeTransfer",
      "outputs": [],
      "stateMutability": "nonpayable",
      "type": "function"
    },
    {
      "inputs": [],
      "name": "fetchItemsCreated",
      "outputs": [
        {
          "components": [
            {
              "internalType": "uint256",
              "name": "itemId",
              "type": "uint256"
            },
            {
              "internalType": "address",
              "name": "nftContract",
              "type": "address"
            },
            {
              "internalType": "uint256",
              "name": "tokenId",
              "type": "uint256"
            },
            {
              "internalType": "address payable",
              "name": "seller",
              "type": "address"
            },
            {
              "internalType": "address payable",
              "name": "owner",
              "type": "address"
            },
            {
              "internalType": "uint256",
              "name": "price",
              "type": "uint256"
            },
            {
              "internalType": "bool",
              "name": "sold",
              "type": "bool"
            }
          ],
          "internalType": "struct NFTMarket.MarketItem[]",
          "name": "",
          "type": "tuple[]"
        }
      ],
      "stateMutability": "view",
      "type": "function"
    },
    {
      "inputs": [],
      "name": "fetchMarketItems",
      "outputs": [
        {
          "components": [
            {
              "internalType": "uint256",
              "name": "itemId",
              "type": "uint256"
            },
            {
              "internalType": "address",
              "name": "nftContract",
              "type": "address"
            },
            {
              "internalType": "uint256",
              "name": "tokenId",
              "type": "uint256"
            },
            {
              "internalType": "address payable",
              "name": "seller",
              "type": "address"
            },
            {
              "internalType": "address payable",
              "name": "owner",
              "type": "address"
            },
            {
              "internalType": "uint256",
              "name": "price",
              "type": "uint256"
            },
            {
              "internalType": "bool",
              "name": "sold",
              "type": "bool"
            }
          ],
          "internalType": "struct NFTMarket.MarketItem[]",
          "name": "",
          "type": "tuple[]"
        }
      ],
      "stateMutability": "view",
      "type": "function"
    },
    {
      "inputs": [],
      "name": "fetchMyNFTs",
      "outputs": [
        {
          "components": [
            {
              "internalType": "uint256",
              "name": "itemId",
              "type": "uint256"
            },
            {
              "internalType": "address",
              "name": "nftContract",
              "type": "address"
            },
            {
              "internalType": "uint256",
              "name": "tokenId",
              "type": "uint256"
            },
            {
              "internalType": "address payable",
              "name": "seller",
              "type": "address"
            },
            {
              "internalType": "address payable",
              "name": "owner",
              "type": "address"
            },
            {
              "internalType": "uint256",
              "name": "price",
              "type": "uint256"
            },
            {
              "internalType": "bool",
              "name": "sold",
              "type": "bool"
            }
          ],
          "internalType": "struct NFTMarket.MarketItem[]",
          "name": "",
          "type": "tuple[]"
        }
      ],
      "stateMutability": "view",
      "type": "function"
    },
    {
      "inputs": [],
      "name": "getListingPrice",
      "outputs": [
        {
          "internalType": "uint256",
          "name": "",
          "type": "uint256"
        }
      ],
      "stateMutability": "view",
      "type": "function"
    }
  ],
  "bytecode": "0x6080604052600480546001600160a01b03191673a85233c63b9ee964add6f2cffe00fd84eb32338f1790556658d15e1762800060055534801561004157600080fd5b506001600055600380546001600160a01b03191633179055610fe7806100686000396000f3fe60806040526004361061007b5760003560e01c80636ae9deb51161004e5780636ae9deb5146100f35780638700c35b14610113578063c23b139e1461014b578063f064c32e1461015e57600080fd5b80630f08efe01461008057806312e85585146100ab578063202e3740146100c957806358eb2df5146100de575b600080fd5b34801561008c57600080fd5b50610095610173565b6040516100a29190610e28565b60405180910390f35b3480156100b757600080fd5b506005546040519081526020016100a2565b3480156100d557600080fd5b5061009561031b565b6100f16100ec366004610dab565b610501565b005b3480156100ff57600080fd5b506100f161010e366004610dab565b61076c565b34801561011f57600080fd5b50600454610133906001600160a01b031681565b6040516001600160a01b0390911681526020016100a2565b6100f1610159366004610d82565b6109b5565b34801561016a57600080fd5b50610095610b44565b6060600061018060015490565b9050600061018d60025490565b60015461019a9190610f69565b90506000808267ffffffffffffffff8111156101c657634e487b7160e01b600052604160045260246000fd5b6040519080825280602002602001820160405280156101ff57816020015b6101ec610d2a565b8152602001906001900390816101e45790505b50905060005b8481101561031257600060068161021d846001610f51565b81526020810191909152604001600020600401546001600160a01b0316141561030057600061024d826001610f51565b600081815260066020818152604092839020835160e0810185528154815260018201546001600160a01b039081169382019390935260028201549481019490945260038101548216606085015260048101549091166080840152600581015460a08401529081015460ff16151560c08301528551929350918590879081106102e557634e487b7160e01b600052603260045260246000fd5b60209081029190910101526102fb600186610f51565b945050505b8061030a81610f80565b915050610205565b50949350505050565b6060600061032860015490565b905060008060005b8381101561038b573360066000610348846001610f51565b81526020810191909152604001600020600401546001600160a01b0316141561037957610376600184610f51565b92505b8061038381610f80565b915050610330565b5060008267ffffffffffffffff8111156103b557634e487b7160e01b600052604160045260246000fd5b6040519080825280602002602001820160405280156103ee57816020015b6103db610d2a565b8152602001906001900390816103d35790505b50905060005b8481101561031257336006600061040c846001610f51565b81526020810191909152604001600020600401546001600160a01b031614156104ef57600061043c826001610f51565b600081815260066020818152604092839020835160e0810185528154815260018201546001600160a01b039081169382019390935260028201549481019490945260038101548216606085015260048101549091166080840152600581015460a08401529081015460ff16151560c08301528551929350918590879081106104d457634e487b7160e01b600052603260045260246000fd5b60209081029190910101526104ea600186610f51565b945050505b806104f981610f80565b9150506103f4565b6002600054141561052d5760405162461bcd60e51b815260040161052490610f1a565b60405180910390fd5b60026000558061057f5760405162461bcd60e51b815260206004820152601c60248201527f5072696365206d757374206265206174206c65617374203120776569000000006044820152606401610524565b60055434146105dc5760405162461bcd60e51b8152602060048201526024808201527f5072696365206d75737420626520657175616c20746f206c697374696e6720706044820152637269636560e01b6064820152608401610524565b6105ea600180546001019055565b60006105f560015490565b6040805160e0810182528281526001600160a01b0387811660208084018281528486018a8152336060870181815260006080890181815260a08a018e815260c08b018381528d8452600698899052928c90209a518b55955160018b0180546001600160a01b0319908116928c16929092179055945160028b0155915160038a0180548616918a1691909117905590516004808a0180549095169190981617909255915160058701555194909101805460ff19169415159490941790935592516323b872dd60e01b815293945091926323b872dd926106d892913091899101610e04565b600060405180830381600087803b1580156106f257600080fd5b505af1158015610706573d6000803e3d6000fd5b505060408051338152600060208201819052818301879052606082015290518693506001600160a01b038816925084917f045dfa01dcba2b36aba1d3dc4a874f4b0c5d2fbeb8d2c4b34a7d88c8d8f929d1919081900360800190a4505060016000555050565b6002600054141561078f5760405162461bcd60e51b815260040161052490610f1a565b6002600081815583815260066020526040902060058101549101548282146107c95760405162461bcd60e51b815260040161052490610ebc565b60048054600086815260066020526040908190206003015490516323b872dd60e01b81526001600160a01b03928316936323b872dd93610810933393911691899101610e04565b602060405180830381600087803b15801561082a57600080fd5b505af115801561083e573d6000803e3d6000fd5b505050506040513d601f19601f820116820180604052508101906108629190610ddd565b61086b57600080fd5b604051632142170760e11b81526001600160a01b038616906342842e0e9061089b90309033908690600401610e04565b600060405180830381600087803b1580156108b557600080fd5b505af11580156108c9573d6000803e3d6000fd5b50505060008581526006602081905260409091206004810180546001600160a01b0319163317905501805460ff191660011790555061090c600280546001019055565b6003546005546040516001600160a01b039092169181156108fc0291906000818181858888f19350505050158015610948573d6000803e3d6000fd5b506000848152600660205260409081902060030154905182916001600160a01b038089169288927f6a5f9d2b6ff1f375ebe095556dc91e68fce80a6187d7527cce81c3ab02726c9c926109a19291169033908a90610e04565b60405180910390a450506001600055505050565b600260005414156109d85760405162461bcd60e51b815260040161052490610f1a565b600260008181558281526006602052604090206005810154910154348214610a125760405162461bcd60e51b815260040161052490610ebc565b6000838152600660205260408082206003015490516001600160a01b03909116913480156108fc02929091818181858888f19350505050158015610a5a573d6000803e3d6000fd5b506040516323b872dd60e01b81526001600160a01b038516906323b872dd90610a8b90309033908690600401610e04565b600060405180830381600087803b158015610aa557600080fd5b505af1158015610ab9573d6000803e3d6000fd5b50505060008481526006602081905260409091206004810180546001600160a01b0319163317905501805460ff1916600117905550610afc600280546001019055565b6003546005546040516001600160a01b039092169181156108fc0291906000818181858888f19350505050158015610b38573d6000803e3d6000fd5b50506001600055505050565b60606000610b5160015490565b905060008060005b83811015610bb4573360066000610b71846001610f51565b81526020810191909152604001600020600301546001600160a01b03161415610ba257610b9f600184610f51565b92505b80610bac81610f80565b915050610b59565b5060008267ffffffffffffffff811115610bde57634e487b7160e01b600052604160045260246000fd5b604051908082528060200260200182016040528015610c1757816020015b610c04610d2a565b815260200190600190039081610bfc5790505b50905060005b84811015610312573360066000610c35846001610f51565b81526020810191909152604001600020600301546001600160a01b03161415610d18576000610c65826001610f51565b600081815260066020818152604092839020835160e0810185528154815260018201546001600160a01b039081169382019390935260028201549481019490945260038101548216606085015260048101549091166080840152600581015460a08401529081015460ff16151560c0830152855192935091859087908110610cfd57634e487b7160e01b600052603260045260246000fd5b6020908102919091010152610d13600186610f51565b945050505b80610d2281610f80565b915050610c1d565b6040805160e081018252600080825260208201819052918101829052606081018290526080810182905260a0810182905260c081019190915290565b80356001600160a01b0381168114610d7d57600080fd5b919050565b60008060408385031215610d94578182fd5b610d9d83610d66565b946020939093013593505050565b600080600060608486031215610dbf578081fd5b610dc884610d66565b95602085013595506040909401359392505050565b600060208284031215610dee578081fd5b81518015158114610dfd578182fd5b9392505050565b6001600160a01b039384168152919092166020820152604081019190915260600190565b602080825282518282018190526000919060409081850190868401855b82811015610eaf57815180518552868101516001600160a01b039081168887015286820151878701526060808301518216908701526080808301519091169086015260a0808201519086015260c09081015115159085015260e09093019290850190600101610e45565b5091979650505050505050565b602080825260409082018190527f506c65617365207375626d6974207468652061736b696e672070726963652069908201527f6e206f7264657220746f20636f6d706c65746520746865207075726368617365606082015260800190565b6020808252601f908201527f5265656e7472616e637947756172643a207265656e7472616e742063616c6c00604082015260600190565b60008219821115610f6457610f64610f9b565b500190565b600082821015610f7b57610f7b610f9b565b500390565b6000600019821415610f9457610f94610f9b565b5060010190565b634e487b7160e01b600052601160045260246000fdfea2646970667358221220ed9a58c1496e3ee96b67bbaaf94291b3bc04e8e268f57005bb664e5918efbc9964736f6c63430008040033",
  "linkReferences": {},
  "deployedLinkReferences": {}
}